:100000000C9446000C9450000C9450000C9450003A
:100010000C9450000C9450000C9450000C94500020
:100020000C9450000C9450000C9450000C94500010
:100030000C9450000C9450000C9450000C94500000
:100040000C9450000C9450000C9450000C945000F0
:100050000C9450000C9450000C9450000C945000E0
:100060000C9450000C9450000C9450000C945000D0
:100070000C9450000C9450000C9450000C945000C0
:100080000C9450000C9450000C94500011241FBE8E
:10009000CFEFD0E1DEBFCDBF0E9439020C941F0428
:1000A0000C940000CF93DF9300D000D000D0CDB7E8
:1000B000DEB79C838B836D834E838B819C8180977D
:1000C000E1F58E81882F90E00097E1F0019709F02B
:1000D0006DC080E290E020E230E02E5B3F4FF901FE
:1000E0002081622F2D81422F50E021E030E002C0BC
:1000F000220F331F4A95E2F7262B8E5B9F4FFC01A0
:10010000208354C080E290E020E230E02E5B3F4F3D
:10011000F9012081622F2D81422F50E021E030E053
:1001200002C0220F331F4A95E2F7209526238E5BEB
:100130009F4FFC012083000039C08B819C819A83F2
:1001400089838E81882F90E00097C9F0019709F08C
:100150002DC089819A81FC018281482F8D81282FB1
:1001600030E081E090E002C0880F991F2A95E2F705
:10017000842B282F89819A81FC01228317C08981D1
:100180009A81FC018281482F8D81282F30E081E007
:1001900090E002C0880F991F2A95E2F7809584238A
:1001A000282F89819A81FC01228300000000269675
:1001B0000FB6F894DEBF0FBECDBFDF91CF9108958B
:1001C000CF93DF9300D000D000D0CDB7DEB79C83B3
:1001D0008B836D834E838B819C818097E1F58E812B
:1001E000882F90E0009719F00197D9F06DC080E258
:1001F00090E020E230E02F5B3F4FF9012081622F39
:100200002D81422F50E021E030E002C0220F331F49
:100210004A95E2F7209526238F5B9F4FFC012083B0
:1002200053C080E290E020E230E02F5B3F4FF901C5
:100230002081622F2D81422F50E021E030E002C06A
:10024000220F331F4A95E2F7262B8F5B9F4FFC014D
:100250002083000039C08B819C819A8389838E81A1
:10026000882F90E0009719F00197C1F02DC0898187
:100270009A81FC018181482F8D81282F30E081E017
:1002800090E002C0880F991F2A95E2F78095842399
:10029000282F89819A81FC01218316C089819A8146
:1002A000FC018181482F8D81282F30E081E090E092
:1002B00002C0880F991F2A95E2F7842B282F898185
:1002C0009A81FC0121830000000026960FB6F89465
:1002D000DEBF0FBECDBFDF91CF910895CF93DF93E7
:1002E00000D000D01F92CDB7DEB79C838B836D8387
:1002F0008B819C818097C9F480E290E020E230E01D
:100300002E5B3F4FF9012081622F2D81422F50E05B
:1003100021E030E002C0220F331F4A95E2F7262B7E
:100320008E5B9F4FFC01208319C08B819C819A8337
:10033000898389819A81FC018281482F8D81282FB0
:1003400030E081E090E002C0880F991F2A95E2F723
:10035000842B282F89819A81FC01228300000F9031
:100360000F900F900F900F90DF91CF910895CF9342
:10037000DF9300D000D01F92CDB7DEB79C838B8374
:100380006D838B819C81809781F480E290E0FC01F9
:100390008081882F90E02D81222F30E002C095953A
:1003A00087952A95E2F7817013C08B819C819A838F
:1003B000898389819A81FC018081882F90E02D8139
:1003C000222F30E002C0959587952A95E2F781703B
:1003D0000F900F900F900F900F90DF91CF91089595
:1003E000CF93DF9300D000D01F92CDB7DEB79C83B0
:1003F0008B836D838B819C818097C9F480E290E030
:1004000020E230E02E5B3F4FF9012081622F2D81E9
:10041000422F50E021E030E002C0220F331F4A9506
:10042000E2F726278E5B9F4FFC01208319C08B814A
:100430009C819A83898389819A81FC018281482FDA
:100440008D81282F30E081E090E002C0880F991F55
:100450002A95E2F78427282F89819A81FC0122833B
:1004600000000F900F900F900F900F90DF91CF91A1
:100470000895CF93DF93CDB7DEB760970FB6F894AA
:10048000DEBF0FBECDBF80E290E020E230E02F5B08
:100490003F4FF901208122608F5B9F4FFC01208339
:1004A00080E290E020E230E02E5B3F4FF9012081B6
:1004B00022608E5B9F4FFC01208389E390E02FEF49
:1004C000FC0121831A8219821A82198297C08981BC
:1004D0009A81049709F472C080E090E0A8E4B2E445
:1004E0008B839C83AD83BE8320E030E04AEF54E4ED
:1004F0006B817C818D819E810E948A03DC01CB010E
:100500008F839887A987BA8720E030E040E85FE3CF
:100510006F81788589859A850E94040388232CF44D
:1005200081E090E09C878B873FC020E03FEF4FE762
:1005300057E46F81788589859A850E94850318160E
:100540004CF520E030E040E251E46B817C818D810C
:100550009E810E948A03DC01CB01BC01CD010E9477
:100560000903DC01CB019C878B870FC088EC90E0EE
:100570009E878D878D859E850197F1F79E878D8754
:100580008B859C8501979C878B878B859C85892B88
:1005900069F714C06F81788589859A850E9409035F
:1005A000DC01CB019C878B878B859C85988B8F8703
:1005B0008F8598890197F1F7988B8F8789E390E071
:1005C00021E030E0098002C0220F331F0A94E2F7D5
:1005D000622F47E050E029813A81421B530B21E012
:1005E00030E002C0220F331F4A95E2F7262BFC01B0
:1005F000228389819A8101969A83898389819A814C
:1006000008970CF464CF60CF0E94380308F481E0AF
:1006100008950E94640388F09F5798F0B92F992796
:10062000B751B0F0E1F0660F771F881F991F1AF0DD
:10063000BA95C9F714C0B13091F00E947E03B1E0C1
:1006400008950C947E03672F782F8827B85F39F0C0
:10065000B93FCCF3869577956795B395D9F73EF476
:1006600090958095709561957F4F8F4F9F4F08951E
:10067000990F0008550FAA0BE0E8FEEF16161706B3
:10068000E807F907C0F012161306E407F50798F01B
:10069000621B730B840B950B39F40A2661F0232B34
:1006A000242B252B21F408950A2609F4A140A695B0
:1006B0008FEF811D811D089557FD9058440F551FE0
:1006C00059F05F3F71F04795880F97FB991F61F0D4
:1006D0009F3F79F087950895121613061406551F4B
:1006E000F2CF4695F1DF08C0161617061806991FB7
:1006F000F1CF86957105610508940895E894BB27AC
:1007000066277727CB0197F908950E94380308F4EC
:100710008FEF08950E949D030C940E040E94000424
:1007200038F00E94070420F0952311F00C94F70391
:100730000C94FD0311240C947F030E945C0370F35E
:10074000959FC1F3950F50E0551F629FF001729F76
:10075000BB27F00DB11D639FAA27F00DB11DAA1F85
:10076000649F6627B00DA11D661F829F2227B00DD2
:10077000A11D621F739FB00DA11D621F839FA00D5D
:10078000611D221F749F3327A00D611D231F849FAD
:10079000600D211D822F762F6A2F11249F57504004
:1007A0009AF0F1F088234AF0EE0FFF1FBB1F661F7F
:1007B000771F881F91505040A9F79E3F510580F048
:1007C0000C94F7030C947F035F3FE4F3983ED4F35B
:1007D000869577956795B795F795E7959F5FC1F7EC
:1007E000FE2B880F911D9695879597F9089597F997
:1007F0009F6780E870E060E008959FEF80EC0895C7
:1008000000240A94161617061806090608950024EF
:100810000A9412161306140605060895092E039469
:10082000000C11F4882352F0BB0F40F4BF2B11F4DD
:1008300060FF04C06F5F7F4F8F4F9F4F0895F89404
:02084000FFCFE8
:00000001FF
