S0170000696E746572666163696E675F6170702E73726563E3
S113000045C0000058C0000056C0000054C00000A5
S113001052C0000050C000004EC000004CC00000A0
S11300204AC0000048C0000046C0000044C00000B0
S113003042C0000040C000003EC000003CC00000C0
S11300403AC0000038C0000036C0000034C00000D0
S113005032C0000030C000002EC000002CC00000E0
S11300602AC0000028C0000026C0000024C00000F0
S113007022C0000020C000001EC000001CC0000000
S11300801AC0000018C0000016C0000011241FBED2
S1130090CFEFD0E1DEBFCDBF11E0A0E0B1E0E4EFEF
S11300A0F9E000E00BBF02C007900D92AA31B1073E
S11300B0D9F702D09DC4A4CF41E061E080E290E092
S11300C08CD141E061E080E290E03FD18FEF8ABBC8
S11300D041E065E089E390E038D192D01CD025D08E
S11300E08111D6D080E023D1C12CD12C7601A70177
S11300F0960161E081E00CD12FEF81EE94E0215074
S113010080409040E1F700C000002FEFC21AD20AED
S1130110E20AF20AECCF81B38F6081BB81B38F70A6
S113012081BB82B3806F82BB0895CF93DF93C0E01D
S113013040E06C2F80E390E008D1CF5FC430C1F77A
S113014060E070E0A1E0B0E082B38F6082BB22B3D4
S1130150EB01CD01062E02C0880F991F0A94E2F725
S11301608095822382BB8FEC97E00197F1F700C062
S11301700000849B0FC0CD0120B3FC0130E0AC0132
S11301804C5F5F4F02C0359527954A95E2F720FDF5
S113019010C002C0E0E0F0E082B38F6082BBCC0FFD
S11301A0DD1FCC0FDD1FEC0FFD1FE050FF4F8081E2
S11301B00DC0019684309105F9F66F5F7F4F64306E
S11301C0710511F682B38F6082BB80E0DF91CF911D
S11301D00895C598C698282F207F95B39F70922BB9
S11301E095BBC79AC7988295807F95B39F70892BDA
S11301F085BBC79AC7988AE68A95F1F700C0089527
S113020041E065E086E390E0E8D041E066E086E323
S113021090E0E3D041E067E086E390E0DED084B391
S1130220806F84BB8FE39CE90197F1F700C0000065
S113023088E2CFDF8CE0CDDF86E0CBDF81E0C9DF71
S11302408FE097E20197F1F700C000000895C59A86
S1130250C698282F207F95B39F70922B95BBC79A81
S1130260C7988295807F95B39F70892B85BBC79A69
S1130270C7988AE68A95F1F700C00895813021F481
S11302808FE7860FA6CF08958FEB860FA2CF089530
S1130290DECF0895CF93DF93EC018881882329F082
S11302A02196D5DF89918111FCCFDF91CF910895FB
S11302B00F931F93CF93DF93CDB7DEB761970FB63C
S11302C0F894DEBF0FBECDBF8E010F5F1F4F81E1DB
S11302D0F80111928A95E9F77F936F9380E191E099
S11302E09F938F931F930F93C1D0C801D3DF0F90B7
S11302F00F900F900F900F900F9061960FB6F89497
S1130300DEBF0FBECDBFDF91CF911F910F91089536
S1130310CF92DF92EF92FF9269017A01AFDFC701BA
S1130320B601C6DFFF90EF90DF90CF9008958F71F4
S113033099B1907E892B89B989B18F73806489B909
S113034088B1807E816088B908958032910521F555
S1130350442391F0413009F03FC0E2E6F0E020810F
S113036081E090E0AC0102C0440F551F6A95E2F7AA
S1130370BA01622B60830895E2E6F0E0208181E017
S113038090E0AC0102C0440F551F6A95E2F7BA0130
S11303906095622360830895442381F04130E1F441
S11303A021E030E0F90102C0EE0FFF1F6A95E2F789
S11303B0BF01FC012281622B6283089521E030E0B9
S11303C0A90102C0440F551F6A95E2F7BA0160956E
S11303D0FC0122816223628308958032910521F514
S11303E0442319F0413089F00895E1E6F0E02081DA
S11303F081E090E0AC0102C0440F551F6A95E2F71A
S1130400BA016095622360830895E1E6F0E02081FB
S113041081E090E0AC0102C0440F551F6A95E2F7F9
S1130420BA01622B60830895442319F0413081F0AE
S1130430089521E030E0F90102C0EE0FFF1F6A9534
S1130440E2F7BF016095FC01218162236183089575
S113045021E030E0A90102C0440F551F6A95E2F77C
S1130460BA01FC012181622B618308950F931F93CC
S1130470CF93DF93CDB7DEB72E970FB6F894DEBFD8
S11304800FBECDBF0D891E8986E08C831A83098334
S11304908FEF9FE79E838D83AE01475E5F4F6F8929
S11304A0788DCE01019610D0EF81F885E00FF11F11
S11304B010822E960FB6F894DEBF0FBECDBFDF912B
S11304C0CF911F910F9108952F923F924F925F9277
S11304D06F927F928F929F92AF92BF92CF92DF9250
S11304E0EF92FF920F931F93CF93DF93CDB7DEB7B5
S11304F02C970FB6F894DEBF0FBECDBF7C016B0105
S11305008A01FC0117821682838181FFB0C1CE016A
S113051001964C01F7019381F60193FD859193FFB8
S113052081916F01882309F49EC1853239F493FDCA
S1130530859193FF81916F01853221F4B70190E099
S1130540C7D1E8CF512C312C20E02032A0F48B32DB
S113055069F030F4803259F0833269F420612CC0A0
S11305608D3239F0803339F4216026C02260246052
S113057023C0286021C027FD27C030ED380F3A3052
S113058078F426FF06C0FAE05F9E300D1124532E46
S113059013C08AE0389E300D1124332E20620CC023
S11305A08E3221F426FD5FC1206406C08C3611F41E
S11305B0206802C0883641F4F60193FD859193FFCB
S11305C081916F018111C1CF982F9F7D95549330F4
S11305D028F40C5F1F4FFFE3F9830DC0833631F01D
S11305E0833771F0833509F057C021C0F801808149
S11305F089830E5F1F4F44244394512C540114C02B
S11306003801F2E06F0E711CF801A080B18026FF62
S113061003C0652D70E002C06FEF7FEFC5012C872A
S11306204CD12C0183012C852F77222E16C0380142
S1130630F2E06F0E711CF801A080B18026FF03C0A8
S1130640652D70E002C06FEF7FEFC5012C872AD1C2
S11306502C012C852068222E830123FC19C0832DB4
S113066090E048165906A0F4B70180E290E030D13A
S11306703A94F5CFF50127FC859127FE81915F011E
S1130680B70190E025D131103A94F1E04F1A5108A6
S11306904114510479F7DEC0843611F0893631F5FE
S11306A0F80127FF07C060817181828193810C5F0B
S11306B01F4F08C060817181882777FD8095982F2E
S11306C00E5F1F4F2F76B22E97FF09C0909580952D
S11306D0709561957F4F8F4F9F4F2068B22E2AE00F
S11306E030E0A40127D1A82EA81843C0853729F4E7
S11306F02F7EB22E2AE030E025C0F22FF97FBF2EE4
S11307008F36C1F018F4883579F0ADC0803719F010
S1130710883721F0A8C02F2F2061B22EB4FE0DC05F
S11307208B2D8460B82E09C024FF0AC09F2F9660C9
S1130730B92E06C028E030E005C020E130E002C058
S113074020E132E0F801B7FE07C060817181828147
S113075093810C5F1F4F06C06081718180E090E03F
S11307600E5F1F4FA401E6D0A82EA818FB2DFF771B
S1130770BF2EB6FE0BC02B2D2E7FA51450F4B4FE55
S11307800AC0B2FC08C02B2D2E7E05C07A2C2B2D5E
S113079003C07A2C01C0752C24FF0DC0FE01EA0DA4
S11307A0F11D8081803311F4297E09C022FF06C027
S11307B07394739404C0822F867809F0739423FD94
S11307C012C020FF06C05A2C731418F4530C571887
S11307D0732C731460F4B70180E290E02C8778D016
S11307E073942C85F6CF731410F4371801C0312C90
S11307F024FF11C0B70180E390E02C8769D02C85D9
S113080022FF16C021FF03C088E590E002C088E7FC
S113081090E0B7010CC0822F867851F021FD02C010
S113082080E201C08BE227FD8DE2B70190E050D059
S1130830A51430F4B70180E390E04AD05A94F8CF7D
S1130840AA94F401EA0DF11D8081B70190E040D033
S1130850A110F6CF332009F45DCEB70180E290E019
S113086037D03A94F7CFF7018681978102C08FEF92
S11308709FEF2C960FB6F894DEBF0FBECDBFDF916D
S1130880CF911F910F91FF90EF90DF90CF90BF9089
S1130890AF909F908F907F906F905F904F903F901C
S11308A02F900895FC010590615070400110D8F715
S11308B0809590958E0F9F1F0895FC0161507040A4
S11308C001900110D8F7809590958E0F9F1F089581
S11308D00F931F93CF93DF93182F092FEB018B8175
S11308E081FD03C08FEF9FEF20C082FF10C04E81B7
S11308F05F812C813D81421753077CF4E881F981A3
S11309009F012F5F3F4F39832883108306C0E885FA
S1130910F985812F0995892B29F72E813F812F5F36
S11309203F4F3F832E83812F902FDF91CF911F91D3
S11309300F910895FA01AA27283051F1203181F14D
S1130940E8946F936E7F6E5F7F4F8F4F9F4FAF4FD3
S1130950B1E03ED0B4E03CD0670F781F891F9A1FE6
S1130960A11D680F791F8A1F911DA11D6A0F711D9A
S1130970811D911DA11D20D009F468943F912AE0A6
S1130980269F11243019305D3193DEF6CF0108958E
S1130990462F4770405D4193B3E00FD0C9F7F6CFBF
S11309A0462F4F70405D4A3318F0495D31FD405287
S11309B0419302D0A9F7EACFB4E0A695979587951D
S11309C077956795BA95C9F70097610571050895FC
S11309D09B01AC010A2E06945795479537952795A8
S11309E0BA95C9F7620F731F841F951FA01D089540
S10709F0F894FFCFA5
S11309F43132332B3435362D3738392A4130422FAE
S10D0A04496E74203D2025640000B3
S9030000FC
